:020000040800F2
:1000000000000220C5340008852E0008872E000855
:10001000892E00088B2E00088D2E0008000000009D
:100020000000000000000000000000008F2E00080B
:10003000912E000800000000932E0008952E000865
:100040001535000815350008153500081535000868
:100050001535000815350008153500081535000858
:100060001535000815350008153500081535000848
:100070001535000815350008153500081535000838
:100080001535000815350008153500081535000828
:100090001535000815350008153500081535000818
:1000A0001535000815350008153500081535000808
:1000B00015350008153500081535000815350008F8
:1000C00015350008153500081535000815350008E8
:1000D0001535000815350008992E0008153500085B
:1000E00015350008153500081535000815350008C8
:1000F00015350008153500081535000815350008B8
:1001000015350008153500081535000815350008A7
:100110001535000815350008A52E0008153500080E
:100120001535000815350008153500081535000887
:100130001535000815350008153500081535000877
:100140001535000815350008153500081535000867
:100150001535000815350008153500081535000857
:100160001535000815350008153500081535000847
:100170001535000815350008153500080000000089
:080180001535000815350008D3
:1001880010B5054C237833B9044B13B10448AFF3C9
:1001980000800123237010BDA00000200000000093
:1001A8007039000808B5034B1BB103490348AFF386
:1001B800008008BD00000000A4000020703900087D
:1001C80081F0004102E000BF83F0004330B54FEA00
:1001D80041044FEA430594EA050F08BF90EA020F6D
:1001E8001FBF54EA000C55EA020C7FEA645C7FEA00
:1001F800655C00F0E2804FEA5454D4EB5555B8BF23
:100208006D420CDD2C4480EA020281EA030382EA93
:10021800000083EA010180EA020281EA0303362D25
:1002280088BF30BD11F0004F4FEA01314FF4801CF8
:100238004CEA113102D0404261EB410113F0004F0A
:100248004FEA03334CEA133302D0524263EB4303C1
:1002580094EA050F00F0A780A4F10104D5F1200E5F
:100268000DDB02FA0EFC22FA05F2801841F10001BA
:1002780003FA0EF2801843FA05F359410EE0A5F18E
:1002880020050EF1200E012A03FA0EFC28BF4CF0BF
:10029800020C43FA05F3C01851EBE37101F0004575
:1002A80007D54FF0000EDCF1000C7EEB00006EEB82
:1002B8000101B1F5801F1BD3B1F5001F0CD349080C
:1002C8005FEA30004FEA3C0C04F101044FEA445263
:1002D80012F5800F80F09A80BCF1004F08BF5FEAEA
:1002E800500C50F1000041EB045141EA050130BDCA
:1002F8005FEA4C0C404141EB010111F4801FA4F16D
:100308000104E9D191F0000F04BF01460020B1FAC1
:1003180081F308BF2033A3F10B03B3F120020CDAF9
:100328000C3208DD02F1140CC2F10C0201FA0CF0D7
:1003380021FA02F10CE002F11402D8BFC2F1200C3C
:1003480001FA02F120FA0CFCDCBF41EA0C019040F2
:10035800E41AA2BF01EB0451294330BD6FEA04043B
:100368001F3C1CDA0C340EDC04F11404C4F1200226
:1003780020FA04F001FA02F340EA030021FA04F338
:1003880045EA030130BDC4F10C04C4F1200220FA8F
:1003980002F001FA04F340EA0300294630BD21FACD
:1003A80004F0294630BD94F0000F83F4801306BF93
:1003B80081F480110134013D4EE77FEA645C18BF87
:1003C8007FEA655C29D094EA050F08BF90EA020F1E
:1003D80005D054EA000C04BF1946104630BD91EA16
:1003E800030F1EBF0021002030BD5FEA545C05D119
:1003F8004000494128BF41F0004130BD14F5800458
:100408003CBF01F5801130BD01F0004545F0FE41CB
:1004180041F470014FF0000030BD7FEA645C1ABF00
:10042800194610467FEA655C1CBF0B46024650EA37
:10043800013406BF52EA033591EA030F41F4002163
:1004480030BD00BF90F0000F04BF0021704730B5E9
:100458004FF4806404F132044FF000054FF00001BE
:1004680050E700BF90F0000F04BF0021704730B57F
:100478004FF4806404F1320410F0004548BF404254
:100488004FF000013EE700BF42004FEAE2014FEAA9
:1004980031014FEA02701FBF12F07F4393F07F4F84
:1004A80081F06051704792F0000F14BF93F07F4FB6
:1004B800704730B54FF4607401F0004521F00041F9
:1004C80020E700BF50EA010208BF704730B54FF07F
:1004D80000050AE050EA010208BF704730B511F084
:1004E800004502D5404261EB41014FF4806404F1BC
:1004F80032045FEA915C3FF4DCAE4FF003025FEA3E
:10050800DC0C18BF03325FEADC0C18BF033202EBC5
:10051800DC02C2F1200300FA03FC20FA02F001FA1F
:1005280003FE40EA0E0021FA02F11444C1E600BFBE
:1005380070B54FF0FF0C4CF4E06C1CEA11541DBF71
:100548001CEA135594EA0C0F95EA0C0F00F0DEF83C
:100558002C4481EA030621EA4C5123EA4C5350EA21
:10056800013518BF52EA033541F4801143F4801372
:1005780038D0A0FB02CE4FF00005E1FB02E506F003
:100588000042E0FB03E54FF00006E1FB03569CF058
:10059800000F18BF4EF0010EA4F1FF04B6F5007F5E
:1005A80064F5407404D25FEA4E0E6D4146EB0606D0
:1005B80042EAC62141EA55514FEAC52040EA5E5059
:1005C8004FEACE2EB4F1FD0C88BFBCF5E06F1ED803
:1005D800BEF1004F08BF5FEA500E50F1000041EB3A
:1005E800045170BD06F0004646EA010140EA0200E7
:1005F80081EA0301B4EB5C04C2BFD4EB0C0541EA09
:10060800045170BD41F480114FF0000E013C00F31D
:10061800AB8014F1360FDEBF002001F0004170BD41
:10062800C4F10004203C35DA0C341BDC04F114045A
:10063800C4F1200500FA05F320FA04F001FA05F2E6
:1006480040EA020001F0004221F0004110EBD370B3
:1006580021FA04F642EB06015EEA430E08BF20EADF
:10066800D37070BDC4F10C04C4F1200500FA04F382
:1006780020FA05F001FA04F240EA020001F0004114
:1006880010EBD37041F100015EEA430E08BF20EA87
:10069800D37070BDC4F1200500FA05F24EEA020ECF
:1006A80020FA04F301FA05F243EA020321FA04F0FE
:1006B80001F0004121FA04F220EA020000EBD370B5
:1006C8005EEA430E08BF20EAD37070BD94F0000FB5
:1006D8000FD101F00046400041EB010111F4801FE9
:1006E80008BF013CF7D041EA060195F0000F18BF9A
:1006F800704703F00046520043EB030313F4801FD6
:1007080008BF013DF7D043EA0603704794EA0C0F8F
:100718000CEA135518BF95EA0C0F0CD050EA4106A5
:1007280018BF52EA4306D1D181EA030101F0004122
:100738004FF0000070BD50EA410606BF104619464A
:1007480052EA430619D094EA0C0F02D150EA013656
:1007580013D195EA0C0F05D152EA03361CBF104697
:1007680019460AD181EA030101F0004141F0FE4136
:1007780041F470014FF0000070BD41F0FE4141F4BA
:10078800780170BD70B54FF0FF0C4CF4E06C1CEABA
:1007980011541DBF1CEA135594EA0C0F95EA0C0F6F
:1007A80000F0A7F8A4EB050481EA030E52EA03352A
:1007B8004FEA013100F088804FEA03334FF080554B
:1007C80045EA131343EA12634FEA022245EA111578
:1007D80045EA10654FEA00260EF000419D4208BF29
:1007E800964244F1FD0404F5407402D25B084FEAD6
:1007F8003202B61A65EB03055B084FEA32024FF482
:1008080080104FF4002CB6EB020E75EB030E22BFDE
:10081800B61A754640EA0C005B084FEA3202B6EB9E
:10082800020E75EB030E22BFB61A754640EA5C004D
:100838005B084FEA3202B6EB020E75EB030E22BFDD
:10084800B61A754640EA9C005B084FEA3202B6EBDE
:10085800020E75EB030E22BFB61A754640EADC009D
:1008680055EA060E18D04FEA051545EA16754FEAFF
:1008780006164FEAC30343EA52734FEAC2025FEA1D
:100888001C1CC0D111F4801F0BD141EA00014FF0AC
:1008980000004FF0004CB6E711F4801F04BF01437D
:1008A8000020B4F1FD0C88BFBCF5E06F3FF6AFAE99
:1008B800B5EB030C04BFB6EB020C5FEA500C50F129
:1008C800000041EB045170BD0EF0004E4EEA1131AC
:1008D80014EB5C04C2BFD4EB0C0541EA045170BDB3
:1008E80041F480114FF0000E013C90E645EA060EF7
:1008F8008DE60CEA135594EA0C0F08BF95EA0C0F25
:100908003FF43BAF94EA0C0F0AD150EA01347FF46C
:1009180034AF95EA0C0F7FF425AF104619462CE743
:1009280095EA0C0F06D152EA03353FF4FDAE1046A6
:10093800194622E750EA410618BF52EA43067FF4F7
:10094800C5AE50EA41047FF40DAF52EA43057FF487
:10095800EBAE12E74FF0FF3C06E000BF4FF0010C92
:1009680002E000BF4FF0010C4DF804CD4FEA410CF6
:100978007FEA6C5C4FEA430C18BF7FEA6C5C1BD0C3
:1009880001B050EA410C0CBF52EA430C91EA030F44
:1009980002BF90EA020F0020704710F1000F91EAA1
:1009A800030F58BF994208BF90422CBFD8176FEA6F
:1009B800E37040F0010070474FEA410C7FEA6C5C3D
:1009C80002D150EA013C07D14FEA430C7FEA6C5C44
:1009D800D6D152EA033CD3D05DF8040B704700BF70
:1009E8008446104662468C461946634600E000BFBE
:1009F80001B5FFF7B7FF002848BF10F1000F01BD90
:100A08004DF808EDFFF7F4FF0CBF012000205DF85A
:100A180008FB00BF4DF808EDFFF7EAFF34BF0120DF
:100A280000205DF808FB00BF4DF808EDFFF7E0FF78
:100A380094BF012000205DF808FB00BF4DF808EDC9
:100A4800FFF7CEFF94BF012000205DF808FB00BF30
:100A58004DF808EDFFF7C4FF34BF012000205DF812
:100A680008FB00BF4FEA410212F5001215D211D55A
:100A78006FF47873B3EB625212D94FEAC12343F093
:100A8800004343EA505311F0004F23FA02F018BF15
:100A9800404270474FF00000704750EA013005D1DE
:100AA80011F0004008BF6FF0004070474FF00000A1
:100AB800704700BF4A0011D212F5001211D20DD5AD
:100AC8006FF47873B3EB62520ED44FEAC12343F04C
:100AD800004343EA505323FA02F070474FF00000F6
:100AE800704750EA013002D14FF0FF3070474FF0A5
:100AF8000000704753B94AB9002908BF00281CBF35
:100B08004FF0FF314FF0FF3000F07AB9ADF1080C2B
:100B18006DE904CE00F006F8DDF804E0DDE9022313
:100B280004B070472DE9F0478C460D460446089EF0
:100B3800002B51D18A4217466DD9B2FA82FEBEF116
:100B4800000F0BD0CEF1200C01FA0EF520FA0CFCA8
:100B580002FA0EF74CEA050C00FA0EF44FEA174AAF
:100B6800250CBCFBFAF81FFA87F90AFB18CC45EAF2
:100B78000C4508FB09F3AB420AD9ED1908F1FF321D
:100B880080F02381AB4240F22081A8F102083D4465
:100B9800ED1AA4B2B5FBFAF00AFB105544EA054475
:100BA80000FB09F9A14509D9E41900F1FF3380F0E8
:100BB8000A81A14540F2078102383C44A4EB0904AC
:100BC80040EA08400021002E61D024FA0EF40023E8
:100BD80034607360BDE8F0878B4207D9002E54D08B
:100BE800002186E821000846BDE8F087B3FA83F1C2
:100BF800002940F08E80AB4202D3824200F2FA8094
:100C0800841A65EB03050120AC46002E3FD086E828
:100C18001010BDE8F08712B90127B7FBF2F7B7FA51
:100C280087FEBEF1000F34D1EB1B3A0C1FFA87FC8C
:100C38000121B3FBF2F8250C02FB183345EA034502
:100C48000CFB08F3AB4207D9ED1908F1FF3002D2CB
:100C5800AB4200F2D1808046ED1AA3B2B5FBF2F0A8
:100C680002FB105543EA05440CFB00FCA44507D9D8
:100C7800E41900F1FF3302D2A44500F2B880184607
:100C8800A4EB0C0440EA08409DE731463046BDE835
:100C9800F087CEF1200405FA0EF307FA0EF720FAD2
:100CA80004F83A0C25FA04F448EA0308B4FBF2F114
:100CB8004FEA184502FB11441FFA87FC45EA044530
:100CC80001FB0CF3AB4200FA0EF409D9ED1901F15E
:100CD800FF3080F08A80AB4240F2878002393D4481
:100CE800EB1A1FFA88F5B3FBF2F002FB103345EA62
:100CF800034500FB0CF3AB4207D9ED1900F1FF38AF
:100D08006FD2AB426DD902383D44EB1A40EA01413B
:100D18008FE7C1F1200722FA07F88B4005FA01F4A2
:100D280048EA030320FA07FE4FEA134CFD404EEA57
:100D3800040EB5FBFCF94FEA1E440CFB19551FFACB
:100D480083F844EA054509FB08F4AC4202FA01F2CB
:100D580000FA01FA08D9ED1809F1FF3043D2AC4284
:100D680041D9A9F102091D442D1B1FFA8EFEB5FBBE
:100D7800FCF00CFB10554EEA054400FB08F8A045B2
:100D880007D9E41800F1FF3529D2A04527D9023840
:100D98001C4440EA0940A4EB0804A0FB02894C4526
:100DA800C6464D4615D312D056B1BAEB0E0364EBC6
:100DB800050404FA07F7CB401F43CC403760746042
:100DC8000021BDE8F0871846F8E69046E0E6C245FF
:100DD800EAD2B8EB020E69EB03050138E4E72846CE
:100DE800D7E7404691E78146BEE7014678E70238F3
:100DF8003C4445E7084608E7A8F102083D442BE7CC
:100E0800704700BF38B50E4A0E4B054618784FF4A8
:100E18007A73B3FBF0F31068B0FBF3F000F0AAF8B4
:100E2800044658B90F2D09D8024629464FF0FF301D
:100E380000F05EF8044B20461D6038BD012038BD27
:100E480034000020000000200400002008B50B4BEF
:100E58001A6842F400721A601A6842F480621A60D2
:100E68001A6842F480721A60032000F02FF80020FC
:100E7800FFF7C8FF01F0E2FF002008BD003C024078
:100E8800034A044B11681B780B441360704700BF7A
:100E9800F003002000000020014B1868704700BFD5
:100EA800F003002038B50446FFF7F6FF631C1CBFAB
:100EB800054B1B78054618BFE418FFF7EDFF401BEC
:100EC8008442FAD838BD00BF00000020074AD36822
:100ED80023F4E0631B041B0C43F0BF63000243F4DC
:100EE800003300F4E0600343D360704700ED00E096
:100EF800174B30B5DC68C4F30224C4F10703251D81
:100F0800042B28BF0423062D4FF0010505FA03F32F
:100F180003F1FF338CBF033C00241940A14005FABC
:100F280004F4013C2240002842EA01024FEA02127E
:100F3800ADBF00F1604000F00F00064B00F56140C6
:100F4800B5BFD2B2D2B21A5480F8002330BD00BF68
:100F580000ED00E014ED00E0002808DB4209012361
:100F680000F01F0003FA00F0014B43F8220070471D
:100F780000E100E00138B0F1807F0AD2064B074A51
:100F88005860F02182F823100020072298601A6028
:100F980070470120704700BF10E000E000ED00E05E
:100FA80090F83530022B03D0802343650120704729
:100FB8000268052380F83530136823F001031360B5
:100FC800002070472DE9F04F85B00B68DFF8AC8141
:100FD800684ADFF8AC91019300230124019D9C40ED
:100FE8002540AC4240F0B0804C6824F0100C0CF165
:100FF800FF36012E4FEA430E12D88768032606FAF9
:101008000EF627EA0607CE6806FA0EF63E43866015
:101018004768C4F3001627EA05079E403E4346602A
:101028000326C76806FA0EF6F64307EA060A8F682B
:1010380007FA0EF747EA0A07BCF1020FC76016D194
:101048004FEAD30A00EB8A0A03F0070BDAF820709C
:101058004FEA8B0B4FF00F0C0CFA0BFC27EA0C0C29
:101068000F6907FA0BF747EA0C07CAF820700768F8
:101078003E4004F0030707FA0EFE4EEA0606066035
:10108800E60061D54FF0000BCDF80CB0D8F84470ED
:10109800394E47F48047C8F84470D8F8447007F4CC
:1010A80080470397039F23F0030707F1804707F55D
:1010B8009C3703F0030CD7F808A04FEA8C0C4FF0CC
:1010C8000F0E0EFA0CFEB0422AEA0E0E43D006F5B9
:1010D8008066B04241D006F58066B0423FD006F542
:1010E8008066B0423DD006F58066B0423BD04845A8
:1010F8003BD006F50066B04239D006F58066B042AE
:1011080014BF0826072606FA0CF646EA0E06BE6045
:101118001668EF4314F4803F0CBF3E402E43166020
:10112800566814F4003F0CBF3E402E435660966844
:1011380014F4801F0CBF3E402E439660D668A4026C
:1011480054BF3E402E43D6600133102B7FF445AF89
:1011580005B0BDE8F08F5E46D5E70126D3E7022645
:10116800D1E70326CFE70426CDE70526CBE70626F9
:10117800C9E700BF003C01400000024000380240BF
:10118800001402400AB1816170470904FBE70000BE
:101198002DE9F341044608B901203FE00368DD0763
:1011A80010D4236898075AD423681A0700F19C8042
:1011B80023685B0700F1BA80A069002840F01B8112
:1011C80000202BE0A44B9A6802F00C02042A07D0F6
:1011D8009A6802F00C02082A0AD15B68590207D5FE
:1011E8009D4B1B689A03DCD56368002BD9D1D3E7E4
:1011F8006368994DB3F5803F13D12B6843F480336E
:101208002B60FFF749FE944D06462B689B03C8D414
:10121800FFF742FE801B6428F7D9032002B0BDE81F
:10122800F081B3F5A02F04D12B6843F480232B6001
:10123800E3E72A6822F480322A602A6822F48022AE
:101248002A60002BDDD1FFF727FE06462B689F0397
:10125800A7D5FFF721FE801B6428F7D9DDE77E4B71
:101268009A6812F00C0F07D09A6802F00C02082A4C
:1012780011D15B685E020ED4774B1A68950702D5C8
:10128800E268012A88D11A68216922F0F80242EA44
:10129800C1021A6088E7E268704BB2B101221A6095
:1012A800FFF7FAFD6C4D06462B68980707D52B68A3
:1012B800226923F0F80343EAC2032B6074E7FFF7BF
:1012C800EBFD801B0228EFD9A7E71A60FFF7E4FDC2
:1012D800614D06462B6899077FF566AFFFF7DCFD81
:1012E800801B0228F6D998E762695D4B7AB1012222
:1012F8001A60FFF7D1FD584D06466B6F9F073FF503
:1013080057AFFFF7C9FD801B0228F6D985E71A6099
:10131800FFF7C2FD504D06466B6F98077FF548AF43
:10132800FFF7BAFD801B0228F6D976E74A4B1A6CFC
:1013380012F0805228D101921A6C42F080521A643D
:101348001B6C03F080530193019B0126454D2B68CC
:10135800D9051BD5A368404D012B27D12B6F43F02E
:1013680001032B67FFF798FD3B4D074641F288388C
:101378002B6F9B0739D5002E3FF41EAF364A136CEE
:1013880023F08053136417E70026DFE72B6843F444
:1013980080732B60FFF780FD07462B68DA05D9D4E8
:1013A800FFF77AFDC01B0228F7D936E7052B04D1D1
:1013B8002B6F43F004032B67D0E72A6F22F001025A
:1013C8002A672A6F22F004022A67002BCAD1FFF786
:1013D80063FD41F2883807462B6F9807CBD5FFF796
:1013E8005BFDC01B4045F7D917E7FFF755FDC01B4C
:1013F8004045BDD911E7184DAB6803F00C03082B25
:1014080047D0194E00230228336035D1FFF744FD39
:1014180007462B68990129D4226AE3691343626A53
:1014280043EA8213E26A43EA0263A26A0A4C520858
:10143800013A43EA02436B6001233360FFF72CFD56
:10144800054623689A013FF5BBAEFFF725FD401B13
:101458000228F6D9E1E600BF003802400000474202
:10146800800E47420070004060004742FFF714FDBD
:10147800C01B0228CDD9D0E6FFF70EFD04462B6825
:101488009B017FF59DAEFFF707FD001B0228F6D9EB
:10149800C3E601283FF4C2AEA868E36900F48002FD
:1014A8009A427FF479AE226A00F03F0393427FF4B8
:1014B80073AE626A47F6C073034093427FF46CAE22
:1014C800A26A00F4403393427FF466AEE36A00F008
:1014D8007060C01A18BF0120A0E600BF134908B504
:1014E8008B6803F00C03042B03D0082B03D010489F
:1014F80008BD104808BD4A684B68496813F4800362
:1015080014BF0C480A48C1F3881118BF002302F021
:101518003F02A1FB0001FFF7EDFA044B5B68C3F340
:10152800014301335B00B0FBF3F008BD0038024013
:101538000024F40000127A002DE9F0410D4604461B
:1015480010B90120BDE8F081444B1A6802F00F027F
:101558008A4229D321688F072ED4C80741D43F4B2C
:101568001A6802F00F02954267D3226851076DD4BA
:10157800130707D53A4A2169936823F4604343EA7D
:10158800C1039360FFF7AAFF354B364A9B68C3F344
:101598000313D35CD840344B1860344B1868FFF7FA
:1015A80031FC0020BDE8F081CAB21A701B6803F054
:1015B8000F039942C5D1CDE7294B11F0040F1EBF87
:1015C8009A6842F4E0529A600E0742BF9A6842F461
:1015D80060429A609A68A06822F0F00202439A601A
:1015E800BBE762681E4B012A1DD11B6813F4003F3C
:1015F800A7D01B4EB36823F003031343B360FFF770
:101608004BFC41F288380746B368626803F00C0364
:10161800B3EB820FA3D0FFF73FFCC01B4045F3D9C3
:101628000320BDE8F081911E01291B6802D813F040
:10163800007FDDE713F0020FDAE7EAB21A701B68E1
:1016480003F00F039D427FF47CAF8EE70449E06806
:101658008B6823F4E05303438B6089E7003C024026
:1016680000380240883900083400002004000020B7
:10167800044B054A9B68C3F38223D35C034A106872
:10168800D8407047003802409839000834000020DC
:10169800044B054A9B68C3F34233D35C034A106882
:1016A800D8407047003802409839000834000020BC
:1016B800036A23F001030362036A70B54468826910
:1016C8000D6822F073022A438D6823F002032B432E
:1016D8000E4DA84202D00E4EB04210D1CE6823F073
:1016E80008033343A84223F0040302D0084DA8425C
:1016F80005D14D698E6924F4407435432C43446008
:1017080082614A684263036270BD00BF0000014005
:1017180000040140036A23F480730362036A70B50E
:101728004468C2690D6822F073022A438D6823F465
:10173800007343EA0523114DA84203D005F58065DF
:10174800A84214D1CD6823F4006343EA05230B4D66
:10175800A84223F4806303D005F58065A84206D12A
:101768004D698E6924F44054354344EA05144460B5
:10177800C2614A68C263036270BD00BF00000140D5
:10178800036A23F480530362036A30B54468C2696C
:101798000D6822F4E64242EA05228D6823F40053DC
:1017A80043EA0533084DA84203D005F58065A842F1
:1017B80004D14D6924F4804444EA85144460C2612C
:1017C8004A680264036230BD000001400368DA68B9
:1017D80042F00102DA609A6802F00702062A1EBF88
:1017E8001A6842F001021A600020704770470368C7
:1017F80089B1042907D01A6A22F001021A621A6A0A
:1018080042F001021A621A6A22F010021A621A6A77
:1018180042F0100206E01A6A22F001021A621A6AFD
:1018280042F001021A621A6842F001021A600020AE
:101838007047704770477047704703681A69910787
:1018480010B504460ED5DA6892070BD56FF0020280
:101858001A619B6901229B07027777D0FFF7EAFF9D
:101868000023237723681A69500710D5DA685107CF
:101878000DD56FF004021A619B69022213F4407FB0
:101888002277204668D0FFF7D5FF00232377236807
:101898001A6912070FD5DA6810070CD56FF008021D
:1018A8001A61DB6904229907227720465AD0FFF78C
:1018B800C1FF0023237723681A69D20610D5DA6896
:1018C800D0060DD56FF010021A61DB69082213F4F7
:1018D800407F227720464BD0FFF7ACFF00232377C9
:1018E80023681A69D10708D5DA68D20705D56FF0D9
:1018F80001021A61204600F08BFE23681A6910065F
:1019080008D5DA68110605D56FF080021A612046FD
:1019180000F0E9FA23681A69520608D5DA68500611
:1019280005D56FF040021A612046FFF785FF23684E
:101938001A69910622D5DA6892061FD56FF020023F
:1019480020461A61BDE8104000F0CCBAFFF771FFDD
:101958002046FFF770FF83E7FFF76BFF2046FFF78E
:101968006AFF92E7FFF765FF2046FFF764FFA0E7ED
:10197800FFF75FFF2046FFF75EFFAFE710BD0000EF
:10198800304A0368904212D0B0F1804F0FD0A2F5D0
:101998007C4290420BD002F58062904207D002F55B
:1019A8008062904203D002F57842904219D14A6889
:1019B80023F070031343234A904229D0B0F1804F9B
:1019C80026D0A2F57C42904222D002F58062904255
:1019D8001ED002F5806290421AD002F578429042F9
:1019E80016D0194A904213D002F5806290420FD067
:1019F80002F5806290420BD0A2F59832904207D04F
:101A080002F58062904203D002F58062904203D1D1
:101A1800CA6823F4407313434A6923F080031343CD
:101A280003608B68C3620B688362064B984203D0DD
:101A380003F58063984201D10B6903630123436175
:101A4800704700BF000001400040014010B5044647
:101A5800A0B190F83D3003F0FF021BB980F83C209C
:101A680001F00CFB022384F83D302068211DFFF7AC
:101A780087FF012384F83D30002010BD012010BDF0
:101A880010B50446A0B190F83D3003F0FF021BB931
:101A980080F83C20FFF7AAFE022384F83D30206836
:101AA800211DFFF76DFF012384F83D30002010BD94
:101AB800012010BDF8B50C460546002843D090F823
:101AC8003D3003F0FF021BB980F83C2001F000FB19
:101AD8002946022351F8040B85F83D30836823F426
:101AE800804323F007038360FFF74AFF28682368D1
:101AF80086688269A168076A1E43A36922F4407256
:101B080022F0030241EA0323134323F47C422369AE
:101B1800E1691B0143EA0123E1680B43216A22F0D2
:101B2800FC0243EA01331343616927F0AA0267689C
:101B3800866047EA0117836117430123076285F826
:101B48003D300020F8BD0120F8BD0000036A23F0F5
:101B580010030362036A70B5446882690D6822F451
:101B6800E64242EA05228D6823F0200343EA051382
:101B7800104DA84203D005F58065A84214D1CD6860
:101B880023F0800343EA05130A4DA84223F04003DB
:101B980003D005F58065A84206D14D698E6924F405
:101BA8004064354344EA8504446082614A6882633C
:101BB800036270BD0000014038B590F83C30012B3D
:101BC80004464FF0020025D0012384F83C3084F805
:101BD8003D000C2A18D8DFE802F0071717171E1760
:101BE80017172F17171740002068FFF761FD2368A4
:101BF80009699A6942F008029A619A6922F0040216
:101C08009A619A690A439A610123002084F83D3059
:101C180084F83C0038BD2068FFF798FF23680969FD
:101C28009A6942F400629A619A6922F480629A6120
:101C38009A6942EA0122E6E72068FFF76BFD23680C
:101C48000969DA6942F00802DA61DA6922F0040205
:101C5800DA61DA690A43DA61D6E72068FFF790FDAE
:101C680023680969DA6942F40062DA61DA6922F400
:101C78008062DA61DA6942EA0122ECE710B5846829
:101C88000A4324F47F4442EA03232343836010BDBC
:101C980090F83C30012B70B504464FF0020019D083
:101CA80084F83D002068012384F83C30836823F4DD
:101CB8007F4323F0770383600B68402B65D015D8EA
:101CC800102B0CD007D853B10123002084F83D30E5
:101CD80084F83C0070BD202B01D0302BF4D18268F1
:101CE80043F0070322F0700213431AE0602B34D04C
:101CF80019D8502BE8D14A68CE68016A056A25F0E0
:101D080001050562836921F00A0123F0F00343EA23
:101D180006130A4383610262836823F0700343F069
:101D280057038360D0E7702B0CD0B3F5005FCBD19D
:101D3800CB684A688968FFF7A1FF2268936843F473
:101D4800804308E0CB684A688968FFF797FF2268F4
:101D5800936843F077039360B6E74D68CE68016AED
:101D680021F0100101628269036A22F4704223F0B3
:101D7800A00343EA051342EA0632826103628368DC
:101D880023F0700343F06703CBE74A68CE68016A23
:101D9800056A25F001050562836921F00A0123F02F
:101DA800F00343EA06130A4383610262836823F05F
:101DB800700343F04703B4E7036A01F01F0110B54D
:101DC80001248C4023EA04030362036A8A401A430D
:101DD800026210BD10B5044601220068FFF7ECFF4F
:101DE80023680B4A93420ED002F5806293420AD0D0
:101DF8009A6802F00702062A03D01A6842F0010224
:101E08001A60002010BD5A6C42F400425A64EFE791
:101E18000000014090F83C30012B30B54FF0020330
:101E280035D080F83D3003680D685C6824F0700494
:101E380001222C4380F83C209A685C60154CA34230
:101E48001AD0B3F1804F17D0A4F57C44A34213D025
:101E580004F58064A3420FD004F58064A3420BD03C
:101E680004F57844A34207D004F57054A34203D084
:101E7800A4F59434A34204D1496822F080020A43AD
:101E88009A60012380F83D30002380F83C301846E2
:101E980030BD00BF0000014090F83C30012B1FD03E
:101EA800CB688A6823F4407313434A6823F4806339
:101EB80013430A6823F4006313430A6923F4805325
:101EC80013434A6923F400531343CA6923F4804334
:101ED800134302685364002380F83C301846704767
:101EE80002207047704770470368DA6822F49072DE
:101EF800DA605A6922F001025A61202380F83A30E8
:101F08007047000038B50368C1681A69044622F4AE
:101F180040520A431A612569A268D968C0692A43F0
:101F2800656921F416412A4321F00C0102430A4352
:101F3800DA605A69A16922F440720A43B0F5004F89
:101F48005A61254A29D1934203D002F5806293420F
:101F580020D1FFF79DFB6268256892184FF00003B7
:101F68004FF019015B41A0FB0101FEF7C3FD64219D
:101F7800B0FBF1F401FB1403DB003233B3FBF1F3E4
:101F880003F007025B0002EB041203F4F873134436
:101F9800AB6038BDFFF76CFBDDE7934202D00F4A18
:101FA800934216D1FFF774FB6368256819219A00DC
:101FB800A0FB01019B0FFEF79DFD6422B0FBF2F12F
:101FC80002FB11031B013233B3FBF2F303EB0113E2
:101FD800DEE7FFF74DFBE7E7001001400014014082
:101FE800F8B504460E4617461D4621680B6836EAC2
:101FF800030301D10020F8BD6B1CF7D095B9236805
:10200800DA6822F4D072DA605A6922F001025A6161
:10201800202384F8393084F83A30002384F83830A3
:102028000320F8BDFEF738FFC01B8542DDD2E6E786
:1020380010B5044640B390F8393003F0FF021BB9DD
:1020480080F8382001F0DAF92268242384F839303E
:10205800D36823F40053D3602046FFF753FF236867
:102068001A6922F490421A615A6922F02A025A61C6
:10207800DA6842F40052DA6000202023E06384F832
:10208800393084F83A3010BD012010BD2DE9F843ED
:102098001F4690F83930202B04460D46904651D102
:1020A80000294CD0002A4AD090F83830012B49D06A
:1020B800012380F838304FF000092123C0F83C9004
:1020C80080F83930FEF7E8FEA4F824800646A4F824
:1020D800268084F83890E38C9BB25BB93B46324645
:1020E80040212046FFF77CFFA0B9202384F839302F
:1020F800BDE8F883E38C013B9BB2E384A368B3F5A6
:10210800805F32463B464FF0800120460ED1FFF7F4
:1021180067FF10B10320BDE8F8832B882268C3F35A
:1021280008035360236943B90235D4E7FFF758FF22
:102138000028EFD123682A785A600135CBE70120BF
:10214800BDE8F8830220BDE8F8832DE9F8431F466F
:1021580090F83A30202B04460D46904654D1002979
:102168004FD0002A4DD090F83830012B4CD00123A5
:1021780080F838304FF000092223C0F83C9080F8EE
:102188003A30FEF789FEA4F82C800646A4F82E8083
:1021980084F83890E08D80B220B9202384F83A3052
:1021A800BDE8F883E38D013B9BB2E385A368B3F5F3
:1021B800805F32463B464FF02001204612D1FFF7A0
:1021C8000FFF10B10320BDE8F883236822695B681C
:1021D80022B9C3F3080325F8023BDBE7DBB225F895
:1021E800013BD7E7FFF7FCFE0028EBD12368216904
:1021F8005B686A1C11B92B701546CBE703F07F03A7
:10220800F9E70120BDE8F8830220BDE8F88390F8DB
:102218003A30202B20D1E9B1E2B190F83830012BC7
:102228001AD0C285828500232222C36380F83A200F
:1022380002688162D16880F8383041F48071D160D9
:10224800516941F001015161D16841F02001D1602B
:10225800184670470120704702207047704790F871
:102268003A30222B10B536D1836801690268B3F57C
:10227800805F836A23D15268E9B9C2F3080223F860
:10228800022B8362C48D013CA4B2C4858CB9036857
:10229800DA6822F02002DA60DA6822F48072DA6002
:1022A8005A6922F001025A61202380F83A3000F07E
:1022B800B3FD002010BDD2B223F8012BE1E721B90C
:1022C800591C526881621A70DCE75268591C816295
:1022D80002F07F02F7E7022010BD704703681A6812
:1022E800D96870B5160704465D6907D196065CD5AE
:1022F8008D065AD5BDE87040FFF7B1BF15F001054E
:1023080002D111F4907F50D0D00705D5CB0542BF3C
:10231800E36B43F00103E363560704D51DB1E36B98
:1023280043F00203E363900704D51DB1E36B43F068
:102338000403E363130706D58E0600D41DB1E36BCF
:1023480043F00803E363E36B002B66D0950604D5DE
:10235800880602D52046FFF782FF23685D69E26B95
:102368001107204602D415F040051AD0FFF7BCFD2E
:1023780023685A69520610D55A69606B22F04002E8
:102388005A6150B1254B0365FEF70AFE002844D078
:10239800606BBDE87040036D18472046FFF79DFF4E
:1023A80070BDFFF79AFFE56370BD160627D50D06C9
:1023B80025D594F83920212A2FD1A268B2F5805F5B
:1023C800226A17D11188C1F308015960216979B9C6
:1023D80002322262E28C013A92B2E284EAB9DA6805
:1023E80022F08002DA60DA6842F04002DA6070BDFA
:1023F8000132EEE7511C216212785A60EAE7500672
:102408000BD54A0609D5DA6822F04002DA602023A3
:1024180084F839302046FFF721FF70BD29240008D1
:1024280008B5806B0023C385C384FFF756FF08BD3A
:102438002DE9F0438DB01422002107A801F092F88D
:102448000024514B01941A6B504EDFF84C91DFF881
:102458004C814F4F42F010021A631A6B02F01002BF
:102468000192019A02941A6B42F004021A631A6BE1
:1024780002F004020292029A03941A6B42F080025C
:102488001A631A6B02F080020392039A04941A6B7F
:1024980042F001021A631A6B02F001020492049AD4
:1024A80005941A6B42F002021A631A6B02F00202D8
:1024B8000592059A06941A6B42F008021A631B6B80
:1024C80003F008030693224630463821069BFEF7A0
:1024D80059FE224648464FF40051FEF753FE0122AA
:1024E80011464846FEF74EFE224640464FF47041DC
:1024F800FEF748FE224638464FF47161FEF742FE69
:102508000125382307A930460793089509940A94AA
:10251800FEF758FD42F2010307A9484607930895BC
:1025280009940A94FEF74EFD042307A94046079331
:1025380008940994FEF746FD4FF4704307A94046F6
:102548000793089509940A94FEF73CFD4FF47163CC
:1025580007A938460793089509940A94FEF732FDAF
:10256800202307A93846079308940994FEF72AFD03
:102578000223079307A9074B089330460994FEF7EF
:1025880021FD0DB0BDE8F083003802400010024084
:10259800000C024000001210000802400004024033
:1025A80010B5013A431E01391044834201D101207C
:1025B80010BD13F8014F11F8012F9442F5D00020F7
:1025C80010BD002230B5811E00F1B205134631F866
:1025D800024F23440CB10132D2B28D42F7D1B3FB82
:1025E800F2F3002200F21A249BB200F2CE20114628
:1025F80034F8025F29440DB10132D2B2A042F7D1BA
:10260800B1FBF2F0181A00B230BD00000000000063
:10261800F8B50268504B9A4240F094804FF08042DF
:102628004E4D506A286000235362D2F82414696022
:10263800C2F82434D2F82418A960C2F82438D2F891
:10264800241CE960C2F8243CFDF7FCFE3EA3D3E954
:102658000023FDF76DFF41EC100B00F08DFF3CA34C
:10266800D3E9002351EC100BFDF762FFFEF722FAC5
:102678003B4C20606868FDF7E5FE33A3D3E90023EF
:10268800FDF756FF41EC100B00F076FF30A3D3E9BD
:10269800002351EC100BFDF74BFFFEF70BFA6060BF
:1026A800A868FDF7CFFE28A3D3E90023FDF740FF74
:1026B80041EC100B00F060FF25A3D3E9002351EC97
:1026C800100BFDF735FFFEF7F5F9A060E868FDF798
:1026D800B9FE1DA3D3E90023FDF72AFF41EC100B37
:1026E80000F04AFF1AA3D3E9002351EC100BFDF7C1
:1026F8001FFFFEF7DFF91B4B22681E686568A1689B
:10270800194BE060751BB21A711A301A1A605D60B5
:102718009960D860154B164E1F68164B1C6807FB4E
:1027280002425C68326007FB05449D68746007FBE1
:102738000151DD68B16083E8140007FB0050F060C8
:102748009960D860F8BD00BFC7BAB88D06F0863F5B
:10275800F6285C8FC285644000100040B00300205A
:10276800C00300200C000020D00300200800002037
:10277800CC0000201000002030B595B03022002198
:1027880008A800F0EFFE0021142203A800F0EAFEDA
:1027980000241D4B01941A6C42F080521A641B6C81
:1027A80003F080530193019B184B02941A6842F47A
:1027B80080421A601B6803F480430293029B012342
:1027C80008934FF4803309934FF480030F93042345
:1027D8001093A8230225119308A8072313930E9595
:1027E8001295FEF7D5FC0F2303934FF4A0530693DD
:1027F80005214FF4805303A8049505940793FEF729
:102808009BFE15B030BD00BF00380240007000408C
:1028180080B5FEF71BFBFFF7AFFFFFF709FE00F0DF
:1028280033FD00F04FFB00F07BFB00F0A7FB00F04E
:1028380001FC00F0ABFD00F0C5FD00F0CDFB00226F
:1028480011462620FEF754FB2620FEF785FB0022C2
:1028580011463620FEF74CFB3620FEF77DFB40F68E
:10286800B830FEF71FFB0021B148B24CFFF7B2FAAF
:102878000421AF48FFF7AEFA0821AD48FFF7AAFADE
:102888000C21AB48FFF7A6FA01224FF48051AA4861
:10289800FEF778FC00224FF40051A748FEF772FCBF
:1028A80001224FF48041A448FEF76CFC00224FF44B
:1028B8000041A148FEF766FC01224FF480719F4851
:1028C800FEF760FC00224FF400719C48FEF75AFCAA
:1028D80001224FF480619948FEF754FC00224FF41E
:1028E80000619648FEF74EFC4FF080420023536289
:1028F8003C21C2F824349248C2F82438C2F8243C57
:10290800FEF775FF3C218F48FEF771FF3C218E488A
:10291800FEF76DFF3C218D48FEF769FF8C48FEF7F6
:1029280055FF01228B498C48FFF771FC42F2107762
:10293800B8468A4EDFF864923378894D002B00F050
:10294800D380884E88480A2305223146FFF7FDFBCD
:10295800002833D13378854A99081170844A03F0E6
:1029680001031370D9B27378B2785B0843EAC213D3
:10297800804A9B111380B6F803207F4E921090B2C4
:10298800308041F28736B2427C4AC8BF41F2883073
:1029980022F8130091B17948FFF713FE8300A9F8D4
:1029A80000007748C218C01A2A606860AA60E86008
:1029B8004FF4B4720021714800F0D4FDB9F90060F9
:1029C800002E40F3A580002210216E48FEF7DAFBA6
:1029D8000122DFF880A16B482021FEF7D3FB9AF88B
:1029E8000060002E65D0012E40F0DA8032464FF4A8
:1029F80000516548FEF7C6FB324610216148FEF7D4
:102A0800C1FB002220215F48FEF7BCFB00224FF4E7
:102A180080514948FEF7B6FB32464FF4005146480C
:102A2800FEF7B0FB32464FF480414348FEF7AAFB5D
:102A380000224FF400414048FEF7A4FB32464FF411
:102A480080713E48FEF79EFB00224FF400713B4820
:102A5800FEF798FB00224FF480613848FEF792FB9E
:102A680032464FF400613548FEF78CFB474B1B8814
:102A78006363A363464B1B88E36364202364FEF708
:102A880011FA00236363A363E363236400224FF412
:102A980000513D48FEF776FB002210213948FEF729
:102AA80071FB002220213748FEF76CFB00238AF8CF
:102AB80000302B68BB426B6888BF2F604345AB680A
:102AC80088BFC5F80480BB42EB6888BFAF60434548
:102AD8002B6888BFC5F80C8063636B68A363AB6819
:102AE800E363EB68236424E70A23072229491E4885
:102AF800FFF72BFB00287FF461AF07222649254802
:102B0800FFF74EFD00283FF459AF0123337055E716
:102B180006D0012210211B48FEF734FB002258E79B
:102B2800324610211748FEF72DFB324651E700BF09
:102B3800F80400200000014000040240000C02409C
:102B48003805002078040020F8030020380400200D
:102B5800B8040020E0030020B8050020ED030020A1
:102B6800BC000020E103002078050020DC000020E4
:102B7800DD000020F4030020F6030020E000002020
:102B8800CC00002000100240000802402C00002069
:102B98002A000020E603002022000020DE0000209A
:102BA800022E3BD100224FF400519348FEF7EAFA77
:102BB800002210219148FEF7E5FA012220218F48D2
:102BC800FEF7E0FA01224FF480518D48FEF7DAFA59
:102BD80000224FF400518A48FEF7D4FA00224FF43D
:102BE80080418748FEF7CEFA01224FF4004184481D
:102BF800FEF7C8FA00224FF480718248FEF7C2FA45
:102C080001224FF400717F48FEF7BCFA01224FF40D
:102C180080617C48FEF7B6FA002222E7032E40F0D6
:102C2800868001224FF400517348FEF7ABFA002268
:102C380010217248FEF7A6FA002220216F48FEF7FD
:102C4800A1FA01224FF480516D48FEF79BFA002249
:102C58004FF400516A48FEF795FA00224FF480417C
:102C68006748FEF78FFA01224FF400416448FEF7E7
:102C780089FA01224FF480716248FEF783FA002234
:102C88004FF400715F48FEF77DFA00224FF480612F
:102C98005C48FEF777FA01224FF400615948FEF7C5
:102CA80071FA594B1B8863630026A3634FF47A704B
:102CB800E3632364FEF7F6F866630122A6634FF424
:102CC8008051E6634E482664FEF75CFA32464FF4BC
:102CD80000514B48FEF756FA01224FF4804148480C
:102CE800FEF750FA32464FF400414548FEF74AFADB
:102CF80001224FF480714348FEF744FA32464FF4FC
:102D080000714048FEF73EFA01224FF480613D48C9
:102D1800FEF738FA32464FF400613A48FEF732FAC5
:102D28006423022239493A48FFF7B0F9AEE6053E76
:102D3800012E3FF6ABAE01224FF400512E48FEF7AC
:102D480021FA002210212D48FEF71CFA002220212A
:102D58002A480026FEF716FA642302222D492C4839
:102D6800FFF794F9A9F800604FF47A706663A663D8
:102D7800E6632664FEF796F801224FF48051204856
:102D8800FEF700FA32464FF400511D48FEF7FAF9F3
:102D980032464FF480411A48FEF7F4F901224FF405
:102DA80000411748FEF7EEF901224FF480711548EB
:102DB800FEF7E8F932464FF400711248FEF7E2F9DF
:102DC80032464FF480610F48FEF7DCF901224FF4D8
:102DD80000610C48FEF7D6F90B4B1B8863634FF470
:102DE8007A70A363E3632364FEF75CF86663A66303
:102DF800E66326644AE600BF00080240001002406D
:102E080000040240000C02402E0000202000002098
:102E180078050020300000200268044B9A4204D153
:102E2800012203490348FFF7F2B970470044004004
:102E3800E0030020B80500207047000007B50E4BDE
:102E4800002100915A6C42F480425A645A6C02F490
:102E580080420092009A01911A6C42F080521A64E2
:102E68001B6C03F0805301930720019BFEF72EF89B
:102E780003B05DF804FB00BF003802407047FEE76E
:102E8800FEE7FEE7FEE7704770477047FDF7F8BFBB
:102E98000148FFF723BA00BFB80500200148FEF734
:102EA800CCBC00BFB8040020054BD3F8882042F4FE
:102EB8007002C3F888204FF000629A60704700BF24
:102EC80000ED00E010B58CB00021242203A800F02A
:102ED80049FB124800244FF0804380E818004FF661
:102EE800FF73C3600323039303A90123019402948E
:102EF80084600461846105930993FEF7DBFD08B1E2
:102F0800FFF79AFF01A9054801940294FEF782FF92
:102F180008B1FFF791FF0CB010BD00BF38050020C5
:102F280010B58CB00021242203A800F01BFB114827
:102F3800114B002480E818004FF6FF73C360032389
:102F4800039303A9012301940294846004618461BA
:102F580005930993FEF7AEFD08B1FFF76DFF01A9D0
:102F6800044801940294FEF755FF08B1FFF764FF87
:102F78000CB010BD780400200004004010B58CB0DF
:102F88000021242203A800F0EDFA1148114B002477
:102F980080E818004FF6FF73C3600323039303A967
:102FA8000123019402948460046184610593099368
:102FB800FEF780FD08B1FFF73FFF01A9044801941F
:102FC8000294FEF727FF08B1FFF736FF0CB010BDDB
:102FD800F80300200008004010B58CB0002124221E
:102FE80003A800F0BFFA1148114B002480E818002C
:102FF8004FF6FF73C3600323039303A901230194CE
:10300800029484600461846105930993FEF752FD7C
:1030180008B1FFF711FF01A9044801940294FEF7D3
:10302800F9FE08B1FFF708FF0CB010BD3804002006
:10303800000C004013B50F4A0F4841F26703002403
:1030480080E80C0040F2E733009401948460C36088
:103058008461FEF7FBFC08B1FFF7EEFE69460648FF
:1030680000940194FEF7D6FE08B1FFF7E5FE02B022
:1030780010BD00BF00100040B80400200368114ACA
:10308800934282B00DD1002300930F4B5A6C42F04B
:1030980001025A645B6C03F001030093009B02B0C9
:1030A80070470A4A9342FAD100230193064B1A6CDF
:1030B80042F010021A641B6C03F010030193019B89
:1030C800EDE700BF0000014000380240001000405A
:1030D80070B504468EB01422002109A800F042FA07
:1030E8002368B3F1804F36D103F50E3300240094E2
:1030F8001A6C484842F001021A641A6C02F0010284
:103108000092009A01941A6B42F001021A631A6B3A
:1031180002F001020192019A02941A6B42F0020233
:103128001A631B6B03F002030293029B02262023FF
:10313800012509A909930A960D95FDF743FF082370
:10314800354809930A960B940C940D9509A9FDF737
:1031580039FF0EB070BD314A93421DD1304B00216A
:1031680003911A6C42F002021A641A6C02F002020D
:103178000392039A04911A6B42F001021A631B6BC3
:1031880003F001030493049BC023099302230A93C9
:103198000D9309A91F48DAE7224A93421ED1204B12
:1031A8002148002105911A6C42F004021A641A6C35
:1031B80002F004020592059A06911A6B42F0080281
:1031C8001A631B6B03F008030693069B4FF44053E6
:1031D800099302230A930D9309A9B8E7134A934266
:1031E800B7D10F4B002107911A6C42F008021A64FC
:1031F8001A6C02F008020792079A08911A6B42F0BB
:1032080001021A631B6B03F001030893089B032355
:10321800BBE700BF00000240000402400004004079
:103228000038024000080040000C0240000C00403A
:1032380010B5044686B01422002101A800F092F9C6
:1032480022680E4B9A4216D1002300930C4B0D486E
:103258001A6B42F010021A631B6B03F01003009301
:10326800009B4FF4D44301930223029301A9012345
:103278000593FDF7A7FE06B010BD00BF0000014092
:10328800003802400010024010B596B0102200210C
:1032980003A8002400F066F91C2221460DEB020069
:1032A8000194029400F05EF9202221460EA800F055
:1032B80059F93448344A8460A72380E80C0042F264
:1032C8000F73C360046144618461FEF7BFFB08B1FA
:1032D800FFF7B2FD4FF4805303A92A480393FEF782
:1032E800D7FC08B1FFF7A8FD2648FEF7C9FB08B1CF
:1032F800FFF7A2FD002401A9224801940294FEF7D9
:1033080089FD08B1FFF798FD6023002207A91D4831
:103318000793089409940A940B940C940D94FEF75F
:103328004BFC08B1FFF788FD042207A91548FEF7F2
:1033380043FC08B1FFF780FD082207A91148FEF7F2
:103348003BFC08B1FFF778FD0C2207A90D48FEF7F2
:1033580033FC08B1FFF770FD00234FF400520EA9AB
:1033680008480E930F931093119312931392159389
:10337800FEF792FD08B1FFF75FFD0248FFF758FF1F
:1033880016B010BDF80400200000014008B50B4835
:103398000B4B4FF4165E80E808400C220023836034
:1033A800C360036142618361C361FEF741FE18B1E6
:1033B800BDE80840FFF740BD08BD00BFB8050020C4
:1033C8000044004008B50B480B4B4FF4E13E80E841
:1033D80008400C2200238360C3600361426183615B
:1033E800C361FEF725FE18B1BDE80840FFF724BD0C
:1033F80008BD00BF780500200048004010B5142221
:103408008AB0044600210DEB020000F0ABF82368F7
:10341800254A934223D1254B2548002101911A6C56
:1034280042F400321A641A6C02F400320192019AD2
:1034380002911A6B42F001021A631B6B03F001033D
:103448000293029B0C2305930223069303230893FC
:103458000723099305A9FDF7B5FD0AB010BD154A64
:103468009342FAD1114B1448002103911A6C42F48B
:1034780080221A641A6C02F480220392039A04913F
:103488001A6B42F002021A631B6B03F002030493E7
:10349800049B4FF440630593022306930323089388
:1034A8000723099305A9D6E70044004000380240E5
:1034B800000002400048004000040240DFF834D019
:1034C800002103E00C4B5B58435004310B480C4B74
:1034D80042189A42F6D30B4A02E0002342F8043B12
:1034E800094B9A42F9D3FFF7DFFC00F017F8FFF712
:1034F8008FF9704700000220E8390008000000201A
:10350800A0000020A0000020F8050020FEE7000031
:10351800014B1868704700BF3800002070B50D4E89
:103528000D4CA41BA4100025A54209D10B4E0C4C30
:1035380000F01AFAA41BA4100025A54205D170BDFD
:1035480056F8253098470135EEE756F82530984764
:103558000135F2E7E0390008E0390008E0390008F1
:10356800E439000802440346934200D1704703F847
:10357800011BF9E700000000F0B52DED028B384E75
:103588008BB055EC104B00F073F896F90030B0EEA4
:10359800408AF0EE608A01332CD045EC104B00F0E5
:1035A800D9F938B32AA3D3E9002320462946FDF7E1
:1035B8004FFA0746002830D003230093294B019384
:1035C8000023089396F90030CDE90445CDE902457A
:1035D800C3B9254B4FF06042CDE90623684600F099
:1035E800C1F9A8B1089B1BB1FFF792FF089B0360C4
:1035F8009DED068BB0EE480AF0EE680A0BB0BDEC04
:10360800028BF0BD19490020CDE90601022BE5D156
:10361800FFF77EFF22230360E4E70FA3D3E900232B
:1036280020462946FDF7F6F90028E3D00423009345
:103638000C4B019300220023CDE906230897CDE91E
:103648000445CDE9024596F90030DFE7AFF3008085
:10365800EF39FAFE422E864051302DD5104987C0E9
:103668009C000020A0390008FFFFEF470000F07F12
:103678002DE9F74F55EC104BAD4A25F0004797421E
:103688004FEAD57640F2AF80AA4A974215D9C5F3DA
:103698001303234309D010EE102A2B46204629464F
:1036A800FCF794FD04460D4602E00EB10024002507
:1036B80045EC104B03B0BDE8F08F87A3D3E9002396
:1036C80010EE100A2946FDF7C3F938B184A3D3E9EF
:1036D800002310461946FCF72BFFE3E782A3D3E942
:1036E800002320462946FDF795F90028DED1924BA4
:1036F8009F424FEAC60700F28E80904B3B44D3E9C5
:10370800002320462946FCF75FFD8D4B1F4497EDAB
:10371800007B8DED007B8246C6F101008B46861B3F
:10372800DDE9002350465946FCF74EFD04460D4698
:1037380022462B4620462946FCF7FAFE6CA3D3E91D
:10374800002380468946FCF7F3FE6BA3D3E90023E8
:10375800FCF73AFD42464B46FCF7EAFE68A3D3E97C
:103768000023FCF733FD42464B46FCF7E1FE66A317
:10377800D3E90023FCF728FD42464B46FCF7D8FE68
:1037880063A3D3E90023FCF721FD42464B46FCF72F
:10379800CFFE02460B4620462946FCF715FD80461B
:1037A800894602460B4620462946002E62D1FCF780
:1037B800BFFE002206460F464FF08043404649466A
:1037C800FCF702FD02460B4630463946FCF7DAFFA5
:1037D80022462B46FCF7F8FC02460B4600205949C6
:1037E800FCF7F2FC5EE7584B9F4280D8574B9F424C
:1037F8003CD83BA3D3E9002310EE100A2946FCF776
:10380800E5FC00224F4BFDF723F988B300224D4B0E
:103818002046294644E74E4E3FA3D3E900233E44C1
:1038280020462946FCF784FED6E90023FCF7CEFCA7
:10383800FDF718F90646FCF715FE39A3D3E900236E
:1038480080468946FCF774FE02460B462046294608
:10385800FCF7BAFC34A3D3E9002382468B464046E2
:103868004946FCF765FECDE9000159E700265FE708
:1038780006465DE7FCF75CFE424604460D464B46AD
:1038880000204FF08041FCF79FFC02460B46204683
:103898002946FCF777FF02460B46DDE90001FCF7F5
:1038A80093FC52465B46FCF78FFC0B4602462549C3
:1038B8000020FCF789FC6FF47F739E4202DB01EB6A
:1038C8000651EFE606F57A7601EB065100224FF035
:1038D800B87300E7AFF30080EF39FAFE422E864056
:1038E8009C7500883CE4377E51302DD5104987C03F
:1038F800D0A4BE726937663EF16BD2C541BDBB3EEE
:103908002CDE25AF6A56113F93BDBE166CC1663FCB
:103918003E5555555555C53FFE822B654715F73F12
:103928000000E0FE422EE63F763C7935EF39EA3D6D
:10393800412E8640FFFFEF7FB1A2F03FB839000863
:10394800C83900080000F03F422ED63FFFFF2F3E47
:10395800A839000810EE903A43F0004000F58010B6
:10396800C00F704700207047F8B500BFF8BC08BC0E
:103978009E467047F8B500BFF8BC08BC9E46704725
:103988000000000000000000010203040607080907
:1039980000000000010203046578700000000000C8
:1039A800000000000000E03F000000000000E0BF51
:1039B8000000E0FE422EE63F0000E0FE422EE6BF99
:1039C800763C7935EF39EA3D763C7935EF39EABD11
:0839D80054D1FF7F0100000043
:0439E000AD0100082D
:0439E400890100084D
:1039E8000100000010000000010000008C0A000027
:1039F8008C0A00008C0A00008C0A00008C0A000067
:103A0800A520A55A05000040810070172823A00FA3
:103A1800A52500000024F4003C0000200000000060
:103A2800000000000000000000000000000000008E
:103A3800000000000000000000000000000000007E
:103A4800000000000000000000000000000000006E
:103A5800000000000000000000000000000000005E
:103A6800000000000000000000000000000000004E
:103A7800000000000000000000000000010000003D
:04000005080034C5F6
:00000001FF
